{
  "_format": "hh-sol-artifact-1",
  "contractName": "SubsCrypt",
  "sourceName": "contracts/SubsCrypt.sol",
  "abi": [
    {
      "inputs": [
        {
          "internalType": "address",
          "name": "_currencyToken",
          "type": "address"
        }
      ],
      "stateMutability": "nonpayable",
      "type": "constructor"
    },
    {
      "inputs": [
        {
          "internalType": "address",
          "name": "owner",
          "type": "address"
        }
      ],
      "name": "OwnableInvalidOwner",
      "type": "error"
    },
    {
      "inputs": [
        {
          "internalType": "address",
          "name": "account",
          "type": "address"
        }
      ],
      "name": "OwnableUnauthorizedAccount",
      "type": "error"
    },
    {
      "anonymous": false,
      "inputs": [
        {
          "indexed": true,
          "internalType": "uint256",
          "name": "serviceId",
          "type": "uint256"
        },
        {
          "indexed": true,
          "internalType": "uint256",
          "name": "amount",
          "type": "uint256"
        }
      ],
      "name": "FundsCollectedByProvider",
      "type": "event"
    },
    {
      "anonymous": false,
      "inputs": [
        {
          "indexed": true,
          "internalType": "address",
          "name": "previousOwner",
          "type": "address"
        },
        {
          "indexed": true,
          "internalType": "address",
          "name": "newOwner",
          "type": "address"
        }
      ],
      "name": "OwnershipTransferred",
      "type": "event"
    },
    {
      "anonymous": false,
      "inputs": [
        {
          "indexed": true,
          "internalType": "address",
          "name": "provider",
          "type": "address"
        },
        {
          "indexed": true,
          "internalType": "uint256",
          "name": "serviceId",
          "type": "uint256"
        },
        {
          "indexed": false,
          "internalType": "uint256",
          "name": "price",
          "type": "uint256"
        },
        {
          "indexed": false,
          "internalType": "uint256",
          "name": "renewalPeriod",
          "type": "uint256"
        }
      ],
      "name": "ServiceRegistered",
      "type": "event"
    },
    {
      "anonymous": false,
      "inputs": [
        {
          "indexed": true,
          "internalType": "address",
          "name": "subscriber",
          "type": "address"
        },
        {
          "indexed": true,
          "internalType": "uint256",
          "name": "serviceId",
          "type": "uint256"
        },
        {
          "indexed": true,
          "internalType": "uint256",
          "name": "subscriptionId",
          "type": "uint256"
        }
      ],
      "name": "Subscribed",
      "type": "event"
    },
    {
      "anonymous": false,
      "inputs": [
        {
          "indexed": true,
          "internalType": "uint256",
          "name": "serviceId",
          "type": "uint256"
        },
        {
          "indexed": true,
          "internalType": "uint256",
          "name": "amount",
          "type": "uint256"
        },
        {
          "indexed": true,
          "internalType": "uint256",
          "name": "fee",
          "type": "uint256"
        }
      ],
      "name": "SubscriptionProcesses",
      "type": "event"
    },
    {
      "inputs": [
        {
          "internalType": "uint256",
          "name": "",
          "type": "uint256"
        }
      ],
      "name": "AllServices",
      "outputs": [
        {
          "internalType": "address",
          "name": "provider",
          "type": "address"
        },
        {
          "internalType": "uint256",
          "name": "price",
          "type": "uint256"
        },
        {
          "internalType": "uint256",
          "name": "renewalPeriod",
          "type": "uint256"
        },
        {
          "internalType": "bool",
          "name": "isActive",
          "type": "bool"
        }
      ],
      "stateMutability": "view",
      "type": "function"
    },
    {
      "inputs": [
        {
          "internalType": "uint256",
          "name": "",
          "type": "uint256"
        }
      ],
      "name": "AllSubscriptions",
      "outputs": [
        {
          "internalType": "address",
          "name": "subscriber",
          "type": "address"
        },
        {
          "internalType": "uint256",
          "name": "serviceId",
          "type": "uint256"
        },
        {
          "internalType": "uint256",
          "name": "nextRenewal",
          "type": "uint256"
        },
        {
          "internalType": "bool",
          "name": "isActive",
          "type": "bool"
        }
      ],
      "stateMutability": "view",
      "type": "function"
    },
    {
      "inputs": [],
      "name": "CURRENCY_TOKEN",
      "outputs": [
        {
          "internalType": "address",
          "name": "",
          "type": "address"
        }
      ],
      "stateMutability": "view",
      "type": "function"
    },
    {
      "inputs": [
        {
          "internalType": "address",
          "name": "",
          "type": "address"
        },
        {
          "internalType": "uint256",
          "name": "",
          "type": "uint256"
        }
      ],
      "name": "MyServices",
      "outputs": [
        {
          "internalType": "uint256",
          "name": "",
          "type": "uint256"
        }
      ],
      "stateMutability": "view",
      "type": "function"
    },
    {
      "inputs": [
        {
          "internalType": "address",
          "name": "",
          "type": "address"
        },
        {
          "internalType": "uint256",
          "name": "",
          "type": "uint256"
        }
      ],
      "name": "MySubscriptions",
      "outputs": [
        {
          "internalType": "uint256",
          "name": "",
          "type": "uint256"
        }
      ],
      "stateMutability": "view",
      "type": "function"
    },
    {
      "inputs": [
        {
          "internalType": "uint256",
          "name": "subscriptionId",
          "type": "uint256"
        }
      ],
      "name": "activateSubscription",
      "outputs": [],
      "stateMutability": "nonpayable",
      "type": "function"
    },
    {
      "inputs": [
        {
          "internalType": "uint256",
          "name": "serviceId",
          "type": "uint256"
        }
      ],
      "name": "collectFundsFromMyService",
      "outputs": [],
      "stateMutability": "nonpayable",
      "type": "function"
    },
    {
      "inputs": [
        {
          "internalType": "uint256",
          "name": "serviceId",
          "type": "uint256"
        }
      ],
      "name": "deactivateService",
      "outputs": [],
      "stateMutability": "nonpayable",
      "type": "function"
    },
    {
      "inputs": [
        {
          "internalType": "uint256",
          "name": "subscriptionId",
          "type": "uint256"
        }
      ],
      "name": "deactivateSubscription",
      "outputs": [],
      "stateMutability": "nonpayable",
      "type": "function"
    },
    {
      "inputs": [],
      "name": "feeCollected",
      "outputs": [
        {
          "internalType": "uint256",
          "name": "",
          "type": "uint256"
        }
      ],
      "stateMutability": "view",
      "type": "function"
    },
    {
      "inputs": [
        {
          "internalType": "uint256",
          "name": "serviceId",
          "type": "uint256"
        }
      ],
      "name": "getActiveSubscriberCount",
      "outputs": [
        {
          "internalType": "uint256",
          "name": "count",
          "type": "uint256"
        }
      ],
      "stateMutability": "view",
      "type": "function"
    },
    {
      "inputs": [
        {
          "internalType": "uint256",
          "name": "serviceId",
          "type": "uint256"
        }
      ],
      "name": "getActiveSubscribersOf",
      "outputs": [
        {
          "internalType": "address[]",
          "name": "",
          "type": "address[]"
        }
      ],
      "stateMutability": "view",
      "type": "function"
    },
    {
      "inputs": [
        {
          "internalType": "uint256",
          "name": "serviceId",
          "type": "uint256"
        }
      ],
      "name": "getCollectableFundsOf",
      "outputs": [
        {
          "internalType": "uint256",
          "name": "collectableFunds",
          "type": "uint256"
        }
      ],
      "stateMutability": "view",
      "type": "function"
    },
    {
      "inputs": [
        {
          "internalType": "address",
          "name": "_provider",
          "type": "address"
        }
      ],
      "name": "getTotalServicesOf",
      "outputs": [
        {
          "internalType": "uint256",
          "name": "",
          "type": "uint256"
        }
      ],
      "stateMutability": "view",
      "type": "function"
    },
    {
      "inputs": [
        {
          "internalType": "address",
          "name": "_subscriber",
          "type": "address"
        }
      ],
      "name": "getTotalSubscriptionOf",
      "outputs": [
        {
          "internalType": "uint256",
          "name": "",
          "type": "uint256"
        }
      ],
      "stateMutability": "view",
      "type": "function"
    },
    {
      "inputs": [
        {
          "internalType": "uint256",
          "name": "serviceId",
          "type": "uint256"
        },
        {
          "internalType": "address",
          "name": "subscriber",
          "type": "address"
        }
      ],
      "name": "isSubscribedTo",
      "outputs": [
        {
          "internalType": "bool",
          "name": "",
          "type": "bool"
        }
      ],
      "stateMutability": "view",
      "type": "function"
    },
    {
      "inputs": [],
      "name": "owner",
      "outputs": [
        {
          "internalType": "address",
          "name": "",
          "type": "address"
        }
      ],
      "stateMutability": "view",
      "type": "function"
    },
    {
      "inputs": [
        {
          "internalType": "uint256[]",
          "name": "serviceIds",
          "type": "uint256[]"
        }
      ],
      "name": "processMultipleServices",
      "outputs": [],
      "stateMutability": "nonpayable",
      "type": "function"
    },
    {
      "inputs": [
        {
          "internalType": "uint256",
          "name": "serviceId",
          "type": "uint256"
        }
      ],
      "name": "processSubscriptionsByService",
      "outputs": [],
      "stateMutability": "nonpayable",
      "type": "function"
    },
    {
      "inputs": [
        {
          "internalType": "uint256",
          "name": "price",
          "type": "uint256"
        },
        {
          "internalType": "uint256",
          "name": "renewalPeriod",
          "type": "uint256"
        }
      ],
      "name": "registerNewService",
      "outputs": [],
      "stateMutability": "nonpayable",
      "type": "function"
    },
    {
      "inputs": [],
      "name": "renounceOwnership",
      "outputs": [],
      "stateMutability": "nonpayable",
      "type": "function"
    },
    {
      "inputs": [
        {
          "internalType": "uint256",
          "name": "serviceId",
          "type": "uint256"
        }
      ],
      "name": "subscribeTo",
      "outputs": [],
      "stateMutability": "payable",
      "type": "function"
    },
    {
      "inputs": [],
      "name": "totalServices",
      "outputs": [
        {
          "internalType": "uint256",
          "name": "",
          "type": "uint256"
        }
      ],
      "stateMutability": "view",
      "type": "function"
    },
    {
      "inputs": [],
      "name": "totalSubscriptions",
      "outputs": [
        {
          "internalType": "uint256",
          "name": "",
          "type": "uint256"
        }
      ],
      "stateMutability": "view",
      "type": "function"
    },
    {
      "inputs": [
        {
          "internalType": "address",
          "name": "newOwner",
          "type": "address"
        }
      ],
      "name": "transferOwnership",
      "outputs": [],
      "stateMutability": "nonpayable",
      "type": "function"
    },
    {
      "inputs": [
        {
          "internalType": "address",
          "name": "_receiver",
          "type": "address"
        }
      ],
      "name": "withdrawFee",
      "outputs": [],
      "stateMutability": "nonpayable",
      "type": "function"
    }
  ],
  "bytecode": "0x60806040523480156200001157600080fd5b506040516200333838038062003338833981810160405281019062000037919062000236565b33600073ffffffffffffffffffffffffffffffffffffffff168173ffffffffffffffffffffffffffffffffffffffff1603620000ad5760006040517f1e4fbdf7000000000000000000000000000000000000000000000000000000008152600401620000a4919062000279565b60405180910390fd5b620000be816200010660201b60201c565b50806000806101000a81548173ffffffffffffffffffffffffffffffffffffffff021916908373ffffffffffffffffffffffffffffffffffffffff1602179055505062000296565b6000600860009054906101000a900473ffffffffffffffffffffffffffffffffffffffff16905081600860006101000a81548173ffffffffffffffffffffffffffffffffffffffff021916908373ffffffffffffffffffffffffffffffffffffffff1602179055508173ffffffffffffffffffffffffffffffffffffffff168173ffffffffffffffffffffffffffffffffffffffff167f8be0079c531659141344cd1fd0a4f28419497f9722a3daafe3b4186f6b6457e060405160405180910390a35050565b600080fd5b600073ffffffffffffffffffffffffffffffffffffffff82169050919050565b6000620001fe82620001d1565b9050919050565b6200021081620001f1565b81146200021c57600080fd5b50565b600081519050620002308162000205565b92915050565b6000602082840312156200024f576200024e620001cc565b5b60006200025f848285016200021f565b91505092915050565b6200027381620001f1565b82525050565b600060208201905062000290600083018462000268565b92915050565b61309280620002a66000396000f3fe6080604052600436106101815760003560e01c80636ca7f95c116100d1578063a75d7e861161008a578063ec9c321211610064578063ec9c3212146105b1578063edb2272d146105da578063f2fde38b14610603578063f6cd11161461062c57610181565b8063a75d7e8614610509578063c2edf23314610549578063e72531c81461058657610181565b80636ca7f95c1461040d57806371094ee714610438578063715018a6146104615780637f81e207146104785780638da5cb5b146104a157806396c7d4c4146104cc57610181565b80633223ae741161013e57806362f567a81161011857806362f567a8146103535780636301ac8f1461037c5780636923e885146103a75780636b1245f7146103d057610181565b80633223ae741461029957806338a2ca4d146102d657806345d8f7b51461031357610181565b80630990d56a1461018657806309cb95c2146101c35780631328b870146101ec578063146bca37146102175780631ac3ddeb146102545780631bfc67151461027d575b600080fd5b34801561019257600080fd5b506101ad60048036038101906101a89190612545565b610669565b6040516101ba919061258b565b60405180910390f35b3480156101cf57600080fd5b506101ea60048036038101906101e591906125d2565b6106b5565b005b3480156101f857600080fd5b50610201610a55565b60405161020e919061258b565b60405180910390f35b34801561022357600080fd5b5061023e600480360381019061023991906125ff565b610a5b565b60405161024b919061265a565b60405180910390f35b34801561026057600080fd5b5061027b60048036038101906102769190612545565b610b46565b005b610297600480360381019061029291906125d2565b610bfc565b005b3480156102a557600080fd5b506102c060048036038101906102bb9190612675565b610f5d565b6040516102cd919061258b565b60405180910390f35b3480156102e257600080fd5b506102fd60048036038101906102f89190612675565b610f8e565b60405161030a919061258b565b60405180910390f35b34801561031f57600080fd5b5061033a600480360381019061033591906125d2565b610fbf565b60405161034a94939291906126c4565b60405180910390f35b34801561035f57600080fd5b5061037a600480360381019061037591906125d2565b61101c565b005b34801561038857600080fd5b50610391611401565b60405161039e919061258b565b60405180910390f35b3480156103b357600080fd5b506103ce60048036038101906103c99190612862565b611407565b005b3480156103dc57600080fd5b506103f760048036038101906103f291906125d2565b611455565b6040516104049190612969565b60405180910390f35b34801561041957600080fd5b506104226117de565b60405161042f919061258b565b60405180910390f35b34801561044457600080fd5b5061045f600480360381019061045a919061298b565b6117e4565b005b34801561046d57600080fd5b506104766119cd565b005b34801561048457600080fd5b5061049f600480360381019061049a91906125d2565b6119e1565b005b3480156104ad57600080fd5b506104b6611b10565b6040516104c391906129cb565b60405180910390f35b3480156104d857600080fd5b506104f360048036038101906104ee91906125d2565b611b3a565b604051610500919061258b565b60405180910390f35b34801561051557600080fd5b50610530600480360381019061052b91906125d2565b611d56565b60405161054094939291906126c4565b60405180910390f35b34801561055557600080fd5b50610570600480360381019061056b9190612545565b611db3565b60405161057d919061258b565b60405180910390f35b34801561059257600080fd5b5061059b611dff565b6040516105a891906129cb565b60405180910390f35b3480156105bd57600080fd5b506105d860048036038101906105d391906125d2565b611e23565b005b3480156105e657600080fd5b5061060160048036038101906105fc91906125d2565b611f52565b005b34801561060f57600080fd5b5061062a60048036038101906106259190612545565b6120ef565b005b34801561063857600080fd5b50610653600480360381019061064e91906125d2565b612175565b604051610660919061258b565b60405180910390f35b6000600760008373ffffffffffffffffffffffffffffffffffffffff1673ffffffffffffffffffffffffffffffffffffffff168152602001908152602001600020805490509050919050565b803373ffffffffffffffffffffffffffffffffffffffff166001600083815260200190815260200160002060000160009054906101000a900473ffffffffffffffffffffffffffffffffffffffff1673ffffffffffffffffffffffffffffffffffffffff161461075a576040517f08c379a000000000000000000000000000000000000000000000000000000000815260040161075190612a69565b60405180910390fd5b6000600160008481526020019081526020016000206040518060a00160405290816000820160009054906101000a900473ffffffffffffffffffffffffffffffffffffffff1673ffffffffffffffffffffffffffffffffffffffff1673ffffffffffffffffffffffffffffffffffffffff16815260200160018201548152602001600282015481526020016003820180548060200260200160405190810160405280929190818152602001828054801561083357602002820191906000526020600020905b81548152602001906001019080831161081f575b505050505081526020016004820160009054906101000a900460ff1615151515815250509050806080015161089d576040517f08c379a000000000000000000000000000000000000000000000000000000000815260040161089490612ad5565b60405180910390fd5b600080600090505b826060015151811015610a2057600060026000856060015184815181106108cf576108ce612af5565b5b6020026020010151815260200190815260200160002090508060030160009054906101000a900460ff1680156109085750428160020154105b15610a0c5783602001518361091d9190612b53565b925083604001518160020160008282546109379190612b53565b9250508190555060008054906101000a900473ffffffffffffffffffffffffffffffffffffffff1673ffffffffffffffffffffffffffffffffffffffff166323b872dd8260000160009054906101000a900473ffffffffffffffffffffffffffffffffffffffff16866000015187602001516040518463ffffffff1660e01b81526004016109c793929190612b87565b6020604051808303816000875af11580156109e6573d6000803e3d6000fd5b505050506040513d601f19601f82011682018060405250810190610a0a9190612bea565b505b508080610a1890612c17565b9150506108a5565b5080847fa64f5958914de5935238a52a0ead17aa278b4315d8e7ea356848ba1b48d5f00460405160405180910390a350505050565b60035481565b600080600760008473ffffffffffffffffffffffffffffffffffffffff1673ffffffffffffffffffffffffffffffffffffffff168152602001908152602001600020805480602002602001604051908101604052809291908181526020018280548015610ae757602002820191906000526020600020905b815481526020019060010190808311610ad3575b5050505050905060005b8151811015610b3957818181518110610b0d57610b0c612af5565b5b60200260200101518503610b2657600192505050610b40565b8080610b3190612c17565b915050610af1565b5060009150505b92915050565b610b4e61237e565b60008054906101000a900473ffffffffffffffffffffffffffffffffffffffff1673ffffffffffffffffffffffffffffffffffffffff166323b872dd30836005546040518463ffffffff1660e01b8152600401610bad93929190612b87565b6020604051808303816000875af1158015610bcc573d6000803e3d6000fd5b505050506040513d601f19601f82011682018060405250810190610bf09190612bea565b50600060058190555050565b60006001600083815260200190815260200160002090508060040160009054906101000a900460ff16610c64576040517f08c379a0000000000000000000000000000000000000000000000000000000008152600401610c5b90612cab565b60405180910390fd5b610c6e8233610a5b565b15610cae576040517f08c379a0000000000000000000000000000000000000000000000000000000008152600401610ca590612d17565b60405180910390fd5b60008054906101000a900473ffffffffffffffffffffffffffffffffffffffff1673ffffffffffffffffffffffffffffffffffffffff166323b872dd338360000160009054906101000a900473ffffffffffffffffffffffffffffffffffffffff1684600101546040518463ffffffff1660e01b8152600401610d3393929190612b87565b6020604051808303816000875af1158015610d52573d6000803e3d6000fd5b505050506040513d601f19601f82011682018060405250810190610d769190612bea565b5060405180608001604052803373ffffffffffffffffffffffffffffffffffffffff168152602001838152602001826002015442610db49190612b53565b81526020016001151581525060026000600354815260200190815260200160002060008201518160000160006101000a81548173ffffffffffffffffffffffffffffffffffffffff021916908373ffffffffffffffffffffffffffffffffffffffff160217905550602082015181600101556040820151816002015560608201518160030160006101000a81548160ff021916908315150217905550905050600760003373ffffffffffffffffffffffffffffffffffffffff1673ffffffffffffffffffffffffffffffffffffffff168152602001908152602001600020600354908060018154018082558091505060019003906000526020600020016000909190919091505560016000838152602001908152602001600020600301600354908060018154018082558091505060019003906000526020600020016000909190919091505560036000815480929190610f0d90612c17565b9190505550600354823373ffffffffffffffffffffffffffffffffffffffff167ff94991dcbea6e8ac439cbc93bd9c62a4d39f04e0ad656df9a703f13552c2787f60405160405180910390a45050565b60076020528160005260406000208181548110610f7957600080fd5b90600052602060002001600091509150505481565b60066020528160005260406000208181548110610faa57600080fd5b90600052602060002001600091509150505481565b60026020528060005260406000206000915090508060000160009054906101000a900473ffffffffffffffffffffffffffffffffffffffff16908060010154908060020154908060030160009054906101000a900460ff16905084565b61102461237e565b6000600160008381526020019081526020016000206040518060a00160405290816000820160009054906101000a900473ffffffffffffffffffffffffffffffffffffffff1673ffffffffffffffffffffffffffffffffffffffff1673ffffffffffffffffffffffffffffffffffffffff1681526020016001820154815260200160028201548152602001600382018054806020026020016040519081016040528092919081815260200182805480156110fd57602002820191906000526020600020905b8154815260200190600101908083116110e9575b505050505081526020016004820160009054906101000a900460ff16151515158152505090508060800151611167576040517f08c379a000000000000000000000000000000000000000000000000000000000815260040161115e90612ad5565b60405180910390fd5b600080600090505b8260600151518110156112e6576000600260008560600151848151811061119957611198612af5565b5b6020026020010151815260200190815260200160002090508060030160009054906101000a900460ff1680156111d25750428160020154105b156112d2578360200151836111e79190612b53565b925083604001518160020160008282546112019190612b53565b9250508190555060008054906101000a900473ffffffffffffffffffffffffffffffffffffffff1673ffffffffffffffffffffffffffffffffffffffff166323b872dd8260000160009054906101000a900473ffffffffffffffffffffffffffffffffffffffff163087602001516040518463ffffffff1660e01b815260040161128d93929190612b87565b6020604051808303816000875af11580156112ac573d6000803e3d6000fd5b505050506040513d601f19601f820116820180604052508101906112d09190612bea565b505b5080806112de90612c17565b91505061116f565b5060006064826112f69190612d66565b9050806005600082825461130a9190612b53565b9250508190555060008054906101000a900473ffffffffffffffffffffffffffffffffffffffff1673ffffffffffffffffffffffffffffffffffffffff166323b872dd308560000151848661135f9190612d97565b6040518463ffffffff1660e01b815260040161137d93929190612b87565b6020604051808303816000875af115801561139c573d6000803e3d6000fd5b505050506040513d601f19601f820116820180604052508101906113c09190612bea565b508081836113ce9190612d97565b857fe08e3ed33e519ebd9af9b3e5aa128810d4e554d8c08b8b703e5a3488cedaf06960405160405180910390a450505050565b60045481565b61140f61237e565b60005b81518110156114515761143e82828151811061143157611430612af5565b5b602002602001015161101c565b808061144990612c17565b915050611412565b5050565b60606000600160008481526020019081526020016000206040518060a00160405290816000820160009054906101000a900473ffffffffffffffffffffffffffffffffffffffff1673ffffffffffffffffffffffffffffffffffffffff1673ffffffffffffffffffffffffffffffffffffffff16815260200160018201548152602001600282015481526020016003820180548060200260200160405190810160405280929190818152602001828054801561153057602002820191906000526020600020905b81548152602001906001019080831161151c575b505050505081526020016004820160009054906101000a900460ff1615151515815250509050600081606001515167ffffffffffffffff8111156115775761157661271f565b5b6040519080825280602002602001820160405280156115a55781602001602082028036833780820191505090505b5090506000805b8360600151518110156116fd57600060026000866060015184815181106115d6576115d5612af5565b5b602002602001015181526020019081526020016000206040518060800160405290816000820160009054906101000a900473ffffffffffffffffffffffffffffffffffffffff1673ffffffffffffffffffffffffffffffffffffffff1673ffffffffffffffffffffffffffffffffffffffff16815260200160018201548152602001600282015481526020016003820160009054906101000a900460ff16151515158152505090508060600151156116e95780600001518484815181106116a05761169f612af5565b5b602002602001019073ffffffffffffffffffffffffffffffffffffffff16908173ffffffffffffffffffffffffffffffffffffffff168152505082806116e590612c17565b9350505b5080806116f590612c17565b9150506115ac565b5060008167ffffffffffffffff81111561171a5761171961271f565b5b6040519080825280602002602001820160405280156117485781602001602082028036833780820191505090505b50905060005b828110156117d15783818151811061176957611768612af5565b5b602002602001015182828151811061178457611783612af5565b5b602002602001019073ffffffffffffffffffffffffffffffffffffffff16908173ffffffffffffffffffffffffffffffffffffffff168152505080806117c990612c17565b91505061174e565b5080945050505050919050565b60055481565b60008211611827576040517f08c379a000000000000000000000000000000000000000000000000000000000815260040161181e90612e17565b60405180910390fd5b6000811161186a576040517f08c379a000000000000000000000000000000000000000000000000000000000815260040161186190612ea9565b60405180910390fd5b60006001600060045481526020019081526020016000209050338160000160006101000a81548173ffffffffffffffffffffffffffffffffffffffff021916908373ffffffffffffffffffffffffffffffffffffffff16021790555082816001018190555081816002018190555060018160040160006101000a81548160ff0219169083151502179055506004600081548092919061190890612c17565b9190505550600660003373ffffffffffffffffffffffffffffffffffffffff1673ffffffffffffffffffffffffffffffffffffffff16815260200190815260200160002060045490806001815401808255809150506001900390600052602060002001600090919091909150556004543373ffffffffffffffffffffffffffffffffffffffff167ff59010ab8ad125eb066b36d59e1cab6585253483563b7cdc7069d8feced0abd585856040516119c0929190612ec9565b60405180910390a3505050565b6119d561237e565b6119df6000612405565b565b803373ffffffffffffffffffffffffffffffffffffffff166002600083815260200190815260200160002060000160009054906101000a900473ffffffffffffffffffffffffffffffffffffffff1673ffffffffffffffffffffffffffffffffffffffff1614611a86576040517f08c379a0000000000000000000000000000000000000000000000000000000008152600401611a7d90612f64565b60405180910390fd5b60006002600084815260200190815260200160002090508060030160009054906101000a900460ff16611aee576040517f08c379a0000000000000000000000000000000000000000000000000000000008152600401611ae590612fd0565b60405180910390fd5b60008160030160006101000a81548160ff021916908315150217905550505050565b6000600860009054906101000a900473ffffffffffffffffffffffffffffffffffffffff16905090565b600080600160008481526020019081526020016000206040518060a00160405290816000820160009054906101000a900473ffffffffffffffffffffffffffffffffffffffff1673ffffffffffffffffffffffffffffffffffffffff1673ffffffffffffffffffffffffffffffffffffffff168152602001600182015481526020016002820154815260200160038201805480602002602001604051908101604052809291908181526020018280548015611c1457602002820191906000526020600020905b815481526020019060010190808311611c00575b505050505081526020016004820160009054906101000a900460ff161515151581525050905060005b816060015151811015611d4f5760006002600084606001518481518110611c6757611c66612af5565b5b602002602001015181526020019081526020016000206040518060800160405290816000820160009054906101000a900473ffffffffffffffffffffffffffffffffffffffff1673ffffffffffffffffffffffffffffffffffffffff1673ffffffffffffffffffffffffffffffffffffffff16815260200160018201548152602001600282015481526020016003820160009054906101000a900460ff161515151581525050905080606001518015611d235750428160400151105b15611d3b57826020015184611d389190612b53565b93505b508080611d4790612c17565b915050611c3d565b5050919050565b60016020528060005260406000206000915090508060000160009054906101000a900473ffffffffffffffffffffffffffffffffffffffff16908060010154908060020154908060040160009054906101000a900460ff16905084565b6000600660008373ffffffffffffffffffffffffffffffffffffffff1673ffffffffffffffffffffffffffffffffffffffff168152602001908152602001600020805490509050919050565b60008054906101000a900473ffffffffffffffffffffffffffffffffffffffff1681565b803373ffffffffffffffffffffffffffffffffffffffff166001600083815260200190815260200160002060000160009054906101000a900473ffffffffffffffffffffffffffffffffffffffff1673ffffffffffffffffffffffffffffffffffffffff1614611ec8576040517f08c379a0000000000000000000000000000000000000000000000000000000008152600401611ebf90612a69565b60405180910390fd5b60006001600084815260200190815260200160002090508060040160009054906101000a900460ff16611f30576040517f08c379a0000000000000000000000000000000000000000000000000000000008152600401611f2790612cab565b60405180910390fd5b60008160040160006101000a81548160ff021916908315150217905550505050565b803373ffffffffffffffffffffffffffffffffffffffff166002600083815260200190815260200160002060000160009054906101000a900473ffffffffffffffffffffffffffffffffffffffff1673ffffffffffffffffffffffffffffffffffffffff1614611ff7576040517f08c379a0000000000000000000000000000000000000000000000000000000008152600401611fee90612f64565b60405180910390fd5b60006002600084815260200190815260200160002090506000600160008360010154815260200190815260200160002090508160030160009054906101000a900460ff161561207b576040517f08c379a00000000000000000000000000000000000000000000000000000000081526004016120729061303c565b60405180910390fd5b8060040160009054906101000a900460ff166120cc576040517f08c379a00000000000000000000000000000000000000000000000000000000081526004016120c390612cab565b60405180910390fd5b60018260030160006101000a81548160ff02191690831515021790555050505050565b6120f761237e565b600073ffffffffffffffffffffffffffffffffffffffff168173ffffffffffffffffffffffffffffffffffffffff16036121695760006040517f1e4fbdf700000000000000000000000000000000000000000000000000000000815260040161216091906129cb565b60405180910390fd5b61217281612405565b50565b600080600160008481526020019081526020016000206040518060a00160405290816000820160009054906101000a900473ffffffffffffffffffffffffffffffffffffffff1673ffffffffffffffffffffffffffffffffffffffff1673ffffffffffffffffffffffffffffffffffffffff16815260200160018201548152602001600282015481526020016003820180548060200260200160405190810160405280929190818152602001828054801561224f57602002820191906000526020600020905b81548152602001906001019080831161223b575b505050505081526020016004820160009054906101000a900460ff161515151581525050905060005b81606001515181101561237757600060026000846060015184815181106122a2576122a1612af5565b5b602002602001015181526020019081526020016000206040518060800160405290816000820160009054906101000a900473ffffffffffffffffffffffffffffffffffffffff1673ffffffffffffffffffffffffffffffffffffffff1673ffffffffffffffffffffffffffffffffffffffff16815260200160018201548152602001600282015481526020016003820160009054906101000a900460ff161515151581525050905080606001511561236357838061235f90612c17565b9450505b50808061236f90612c17565b915050612278565b5050919050565b6123866124cb565b73ffffffffffffffffffffffffffffffffffffffff166123a4611b10565b73ffffffffffffffffffffffffffffffffffffffff1614612403576123c76124cb565b6040517f118cdaa70000000000000000000000000000000000000000000000000000000081526004016123fa91906129cb565b60405180910390fd5b565b6000600860009054906101000a900473ffffffffffffffffffffffffffffffffffffffff16905081600860006101000a81548173ffffffffffffffffffffffffffffffffffffffff021916908373ffffffffffffffffffffffffffffffffffffffff1602179055508173ffffffffffffffffffffffffffffffffffffffff168173ffffffffffffffffffffffffffffffffffffffff167f8be0079c531659141344cd1fd0a4f28419497f9722a3daafe3b4186f6b6457e060405160405180910390a35050565b600033905090565b6000604051905090565b600080fd5b600080fd5b600073ffffffffffffffffffffffffffffffffffffffff82169050919050565b6000612512826124e7565b9050919050565b61252281612507565b811461252d57600080fd5b50565b60008135905061253f81612519565b92915050565b60006020828403121561255b5761255a6124dd565b5b600061256984828501612530565b91505092915050565b6000819050919050565b61258581612572565b82525050565b60006020820190506125a0600083018461257c565b92915050565b6125af81612572565b81146125ba57600080fd5b50565b6000813590506125cc816125a6565b92915050565b6000602082840312156125e8576125e76124dd565b5b60006125f6848285016125bd565b91505092915050565b60008060408385031215612616576126156124dd565b5b6000612624858286016125bd565b925050602061263585828601612530565b9150509250929050565b60008115159050919050565b6126548161263f565b82525050565b600060208201905061266f600083018461264b565b92915050565b6000806040838503121561268c5761268b6124dd565b5b600061269a85828601612530565b92505060206126ab858286016125bd565b9150509250929050565b6126be81612507565b82525050565b60006080820190506126d960008301876126b5565b6126e6602083018661257c565b6126f3604083018561257c565b612700606083018461264b565b95945050505050565b600080fd5b6000601f19601f8301169050919050565b7f4e487b7100000000000000000000000000000000000000000000000000000000600052604160045260246000fd5b6127578261270e565b810181811067ffffffffffffffff821117156127765761277561271f565b5b80604052505050565b60006127896124d3565b9050612795828261274e565b919050565b600067ffffffffffffffff8211156127b5576127b461271f565b5b602082029050602081019050919050565b600080fd5b60006127de6127d98461279a565b61277f565b90508083825260208201905060208402830185811115612801576128006127c6565b5b835b8181101561282a578061281688826125bd565b845260208401935050602081019050612803565b5050509392505050565b600082601f83011261284957612848612709565b5b81356128598482602086016127cb565b91505092915050565b600060208284031215612878576128776124dd565b5b600082013567ffffffffffffffff811115612896576128956124e2565b5b6128a284828501612834565b91505092915050565b600081519050919050565b600082825260208201905092915050565b6000819050602082019050919050565b6128e081612507565b82525050565b60006128f283836128d7565b60208301905092915050565b6000602082019050919050565b6000612916826128ab565b61292081856128b6565b935061292b836128c7565b8060005b8381101561295c57815161294388826128e6565b975061294e836128fe565b92505060018101905061292f565b5085935050505092915050565b60006020820190508181036000830152612983818461290b565b905092915050565b600080604083850312156129a2576129a16124dd565b5b60006129b0858286016125bd565b92505060206129c1858286016125bd565b9150509250929050565b60006020820190506129e060008301846126b5565b92915050565b600082825260208201905092915050565b7f4f6e6c792070726f76696465722063616e2063616c6c20746869732066756e6360008201527f74696f6e00000000000000000000000000000000000000000000000000000000602082015250565b6000612a536024836129e6565b9150612a5e826129f7565b604082019050919050565b60006020820190508181036000830152612a8281612a46565b9050919050565b7f5365727669636520697320616374697665000000000000000000000000000000600082015250565b6000612abf6011836129e6565b9150612aca82612a89565b602082019050919050565b60006020820190508181036000830152612aee81612ab2565b9050919050565b7f4e487b7100000000000000000000000000000000000000000000000000000000600052603260045260246000fd5b7f4e487b7100000000000000000000000000000000000000000000000000000000600052601160045260246000fd5b6000612b5e82612572565b9150612b6983612572565b9250828201905080821115612b8157612b80612b24565b5b92915050565b6000606082019050612b9c60008301866126b5565b612ba960208301856126b5565b612bb6604083018461257c565b949350505050565b612bc78161263f565b8114612bd257600080fd5b50565b600081519050612be481612bbe565b92915050565b600060208284031215612c0057612bff6124dd565b5b6000612c0e84828501612bd5565b91505092915050565b6000612c2282612572565b91507fffffffffffffffffffffffffffffffffffffffffffffffffffffffffffffffff8203612c5457612c53612b24565b5b600182019050919050565b7f53657276696365206973206e6f74206163746976650000000000000000000000600082015250565b6000612c956015836129e6565b9150612ca082612c5f565b602082019050919050565b60006020820190508181036000830152612cc481612c88565b9050919050565b7f416c726561647920737562736372696265640000000000000000000000000000600082015250565b6000612d016012836129e6565b9150612d0c82612ccb565b602082019050919050565b60006020820190508181036000830152612d3081612cf4565b9050919050565b7f4e487b7100000000000000000000000000000000000000000000000000000000600052601260045260246000fd5b6000612d7182612572565b9150612d7c83612572565b925082612d8c57612d8b612d37565b5b828204905092915050565b6000612da282612572565b9150612dad83612572565b9250828203905081811115612dc557612dc4612b24565b5b92915050565b7f5072696365206d7573742062652067726561746572207468616e207a65726f00600082015250565b6000612e01601f836129e6565b9150612e0c82612dcb565b602082019050919050565b60006020820190508181036000830152612e3081612df4565b9050919050565b7f52656e6577616c20706572696f64206d7573742062652067726561746572207460008201527f68616e207a65726f000000000000000000000000000000000000000000000000602082015250565b6000612e936028836129e6565b9150612e9e82612e37565b604082019050919050565b60006020820190508181036000830152612ec281612e86565b9050919050565b6000604082019050612ede600083018561257c565b612eeb602083018461257c565b9392505050565b7f4f6e6c7920737562736372696265722063616e2063616c6c207468697320667560008201527f6e6374696f6e0000000000000000000000000000000000000000000000000000602082015250565b6000612f4e6026836129e6565b9150612f5982612ef2565b604082019050919050565b60006020820190508181036000830152612f7d81612f41565b9050919050565b7f537562736372697074696f6e206973206e6f7420616374697665000000000000600082015250565b6000612fba601a836129e6565b9150612fc582612f84565b602082019050919050565b60006020820190508181036000830152612fe981612fad565b9050919050565b7f537562736372697074696f6e20697320616c7265616479206163746976650000600082015250565b6000613026601e836129e6565b915061303182612ff0565b602082019050919050565b6000602082019050818103600083015261305581613019565b905091905056fea2646970667358221220f70750c487301a7b1f1948d721135a43e513e3cc7a707d511c55f1e7608da76364736f6c63430008140033",
  "linkReferences": {},
  "deployedLinkReferences": {}
}