{
  "_format": "hh-sol-artifact-1",
  "contractName": "SubsCrypt",
  "sourceName": "contracts/SubsCrypt.sol",
  "abi": [
    {
      "inputs": [
        {
          "internalType": "address",
          "name": "_currencyToken",
          "type": "address"
        }
      ],
      "stateMutability": "nonpayable",
      "type": "constructor"
    },
    {
      "inputs": [
        {
          "internalType": "address",
          "name": "owner",
          "type": "address"
        }
      ],
      "name": "OwnableInvalidOwner",
      "type": "error"
    },
    {
      "inputs": [
        {
          "internalType": "address",
          "name": "account",
          "type": "address"
        }
      ],
      "name": "OwnableUnauthorizedAccount",
      "type": "error"
    },
    {
      "anonymous": false,
      "inputs": [
        {
          "indexed": true,
          "internalType": "uint256",
          "name": "serviceId",
          "type": "uint256"
        },
        {
          "indexed": true,
          "internalType": "uint256",
          "name": "amount",
          "type": "uint256"
        }
      ],
      "name": "FundsCollectedByProvider",
      "type": "event"
    },
    {
      "anonymous": false,
      "inputs": [
        {
          "indexed": true,
          "internalType": "address",
          "name": "previousOwner",
          "type": "address"
        },
        {
          "indexed": true,
          "internalType": "address",
          "name": "newOwner",
          "type": "address"
        }
      ],
      "name": "OwnershipTransferred",
      "type": "event"
    },
    {
      "anonymous": false,
      "inputs": [
        {
          "indexed": true,
          "internalType": "address",
          "name": "provider",
          "type": "address"
        },
        {
          "indexed": true,
          "internalType": "uint256",
          "name": "serviceId",
          "type": "uint256"
        },
        {
          "indexed": false,
          "internalType": "uint256",
          "name": "price",
          "type": "uint256"
        },
        {
          "indexed": false,
          "internalType": "uint256",
          "name": "renewalPeriod",
          "type": "uint256"
        }
      ],
      "name": "ServiceRegistered",
      "type": "event"
    },
    {
      "anonymous": false,
      "inputs": [
        {
          "indexed": true,
          "internalType": "address",
          "name": "subscriber",
          "type": "address"
        },
        {
          "indexed": true,
          "internalType": "uint256",
          "name": "serviceId",
          "type": "uint256"
        },
        {
          "indexed": true,
          "internalType": "uint256",
          "name": "subscriptionId",
          "type": "uint256"
        }
      ],
      "name": "Subscribed",
      "type": "event"
    },
    {
      "anonymous": false,
      "inputs": [
        {
          "indexed": true,
          "internalType": "uint256",
          "name": "serviceId",
          "type": "uint256"
        },
        {
          "indexed": true,
          "internalType": "uint256",
          "name": "amount",
          "type": "uint256"
        },
        {
          "indexed": true,
          "internalType": "uint256",
          "name": "fee",
          "type": "uint256"
        }
      ],
      "name": "SubscriptionProcesses",
      "type": "event"
    },
    {
      "inputs": [
        {
          "internalType": "uint256",
          "name": "",
          "type": "uint256"
        }
      ],
      "name": "AllServices",
      "outputs": [
        {
          "internalType": "address",
          "name": "provider",
          "type": "address"
        },
        {
          "internalType": "uint256",
          "name": "price",
          "type": "uint256"
        },
        {
          "internalType": "uint256",
          "name": "renewalPeriod",
          "type": "uint256"
        },
        {
          "internalType": "bool",
          "name": "isActive",
          "type": "bool"
        }
      ],
      "stateMutability": "view",
      "type": "function"
    },
    {
      "inputs": [
        {
          "internalType": "uint256",
          "name": "",
          "type": "uint256"
        }
      ],
      "name": "AllSubscriptions",
      "outputs": [
        {
          "internalType": "address",
          "name": "subscriber",
          "type": "address"
        },
        {
          "internalType": "uint256",
          "name": "serviceId",
          "type": "uint256"
        },
        {
          "internalType": "uint256",
          "name": "nextRenewal",
          "type": "uint256"
        },
        {
          "internalType": "bool",
          "name": "isActive",
          "type": "bool"
        }
      ],
      "stateMutability": "view",
      "type": "function"
    },
    {
      "inputs": [],
      "name": "CURRENCY_TOKEN",
      "outputs": [
        {
          "internalType": "address",
          "name": "",
          "type": "address"
        }
      ],
      "stateMutability": "view",
      "type": "function"
    },
    {
      "inputs": [
        {
          "internalType": "address",
          "name": "",
          "type": "address"
        },
        {
          "internalType": "uint256",
          "name": "",
          "type": "uint256"
        }
      ],
      "name": "MyServices",
      "outputs": [
        {
          "internalType": "uint256",
          "name": "",
          "type": "uint256"
        }
      ],
      "stateMutability": "view",
      "type": "function"
    },
    {
      "inputs": [
        {
          "internalType": "address",
          "name": "",
          "type": "address"
        },
        {
          "internalType": "uint256",
          "name": "",
          "type": "uint256"
        }
      ],
      "name": "MySubscriptions",
      "outputs": [
        {
          "internalType": "uint256",
          "name": "",
          "type": "uint256"
        }
      ],
      "stateMutability": "view",
      "type": "function"
    },
    {
      "inputs": [
        {
          "internalType": "uint256",
          "name": "subscriptionId",
          "type": "uint256"
        }
      ],
      "name": "activateSubscription",
      "outputs": [],
      "stateMutability": "nonpayable",
      "type": "function"
    },
    {
      "inputs": [
        {
          "internalType": "uint256",
          "name": "serviceId",
          "type": "uint256"
        }
      ],
      "name": "collectFundsFromMyService",
      "outputs": [],
      "stateMutability": "nonpayable",
      "type": "function"
    },
    {
      "inputs": [
        {
          "internalType": "uint256",
          "name": "serviceId",
          "type": "uint256"
        }
      ],
      "name": "deactivateService",
      "outputs": [],
      "stateMutability": "nonpayable",
      "type": "function"
    },
    {
      "inputs": [
        {
          "internalType": "uint256",
          "name": "subscriptionId",
          "type": "uint256"
        }
      ],
      "name": "deactivateSubscription",
      "outputs": [],
      "stateMutability": "nonpayable",
      "type": "function"
    },
    {
      "inputs": [],
      "name": "feeCollected",
      "outputs": [
        {
          "internalType": "uint256",
          "name": "",
          "type": "uint256"
        }
      ],
      "stateMutability": "view",
      "type": "function"
    },
    {
      "inputs": [
        {
          "internalType": "uint256",
          "name": "serviceId",
          "type": "uint256"
        }
      ],
      "name": "getActiveSubscriberCount",
      "outputs": [
        {
          "internalType": "uint256",
          "name": "count",
          "type": "uint256"
        }
      ],
      "stateMutability": "view",
      "type": "function"
    },
    {
      "inputs": [
        {
          "internalType": "uint256",
          "name": "serviceId",
          "type": "uint256"
        }
      ],
      "name": "getActiveSubscribersOf",
      "outputs": [
        {
          "internalType": "address[]",
          "name": "",
          "type": "address[]"
        }
      ],
      "stateMutability": "view",
      "type": "function"
    },
    {
      "inputs": [
        {
          "internalType": "uint256",
          "name": "serviceId",
          "type": "uint256"
        }
      ],
      "name": "getCollectableFundsOf",
      "outputs": [
        {
          "internalType": "uint256",
          "name": "collectableFunds",
          "type": "uint256"
        }
      ],
      "stateMutability": "view",
      "type": "function"
    },
    {
      "inputs": [
        {
          "internalType": "address",
          "name": "subscriber",
          "type": "address"
        },
        {
          "internalType": "uint256",
          "name": "serviceId",
          "type": "uint256"
        }
      ],
      "name": "getSubscription",
      "outputs": [
        {
          "internalType": "uint256",
          "name": "subscriptionId",
          "type": "uint256"
        },
        {
          "internalType": "uint256",
          "name": "nextRenewal",
          "type": "uint256"
        },
        {
          "internalType": "bool",
          "name": "isActive",
          "type": "bool"
        }
      ],
      "stateMutability": "view",
      "type": "function"
    },
    {
      "inputs": [
        {
          "internalType": "address",
          "name": "_provider",
          "type": "address"
        }
      ],
      "name": "getTotalServicesOf",
      "outputs": [
        {
          "internalType": "uint256",
          "name": "",
          "type": "uint256"
        }
      ],
      "stateMutability": "view",
      "type": "function"
    },
    {
      "inputs": [
        {
          "internalType": "uint256",
          "name": "serviceId",
          "type": "uint256"
        }
      ],
      "name": "getTotalSubscribersOf",
      "outputs": [
        {
          "internalType": "uint256",
          "name": "",
          "type": "uint256"
        }
      ],
      "stateMutability": "view",
      "type": "function"
    },
    {
      "inputs": [
        {
          "internalType": "address",
          "name": "_subscriber",
          "type": "address"
        }
      ],
      "name": "getTotalSubscriptionsOf",
      "outputs": [
        {
          "internalType": "uint256",
          "name": "",
          "type": "uint256"
        }
      ],
      "stateMutability": "view",
      "type": "function"
    },
    {
      "inputs": [
        {
          "internalType": "uint256",
          "name": "serviceId",
          "type": "uint256"
        },
        {
          "internalType": "address",
          "name": "subscriber",
          "type": "address"
        }
      ],
      "name": "isSubscribedTo",
      "outputs": [
        {
          "internalType": "bool",
          "name": "",
          "type": "bool"
        }
      ],
      "stateMutability": "view",
      "type": "function"
    },
    {
      "inputs": [],
      "name": "owner",
      "outputs": [
        {
          "internalType": "address",
          "name": "",
          "type": "address"
        }
      ],
      "stateMutability": "view",
      "type": "function"
    },
    {
      "inputs": [
        {
          "internalType": "uint256[]",
          "name": "serviceIds",
          "type": "uint256[]"
        }
      ],
      "name": "processMultipleServices",
      "outputs": [],
      "stateMutability": "nonpayable",
      "type": "function"
    },
    {
      "inputs": [
        {
          "internalType": "uint256",
          "name": "serviceId",
          "type": "uint256"
        }
      ],
      "name": "processSubscriptionsByService",
      "outputs": [],
      "stateMutability": "nonpayable",
      "type": "function"
    },
    {
      "inputs": [
        {
          "internalType": "uint256",
          "name": "price",
          "type": "uint256"
        },
        {
          "internalType": "uint256",
          "name": "renewalPeriod",
          "type": "uint256"
        }
      ],
      "name": "registerNewService",
      "outputs": [],
      "stateMutability": "nonpayable",
      "type": "function"
    },
    {
      "inputs": [],
      "name": "renounceOwnership",
      "outputs": [],
      "stateMutability": "nonpayable",
      "type": "function"
    },
    {
      "inputs": [
        {
          "internalType": "uint256",
          "name": "serviceId",
          "type": "uint256"
        }
      ],
      "name": "subscribeTo",
      "outputs": [],
      "stateMutability": "payable",
      "type": "function"
    },
    {
      "inputs": [],
      "name": "totalServices",
      "outputs": [
        {
          "internalType": "uint256",
          "name": "",
          "type": "uint256"
        }
      ],
      "stateMutability": "view",
      "type": "function"
    },
    {
      "inputs": [],
      "name": "totalSubscriptions",
      "outputs": [
        {
          "internalType": "uint256",
          "name": "",
          "type": "uint256"
        }
      ],
      "stateMutability": "view",
      "type": "function"
    },
    {
      "inputs": [
        {
          "internalType": "address",
          "name": "newOwner",
          "type": "address"
        }
      ],
      "name": "transferOwnership",
      "outputs": [],
      "stateMutability": "nonpayable",
      "type": "function"
    },
    {
      "inputs": [
        {
          "internalType": "address",
          "name": "_receiver",
          "type": "address"
        }
      ],
      "name": "withdrawFee",
      "outputs": [],
      "stateMutability": "nonpayable",
      "type": "function"
    }
  ],
  "bytecode": "0x60806040523480156200001157600080fd5b506040516200362e3803806200362e833981810160405281019062000037919062000236565b33600073ffffffffffffffffffffffffffffffffffffffff168173ffffffffffffffffffffffffffffffffffffffff1603620000ad5760006040517f1e4fbdf7000000000000000000000000000000000000000000000000000000008152600401620000a4919062000279565b60405180910390fd5b620000be816200010660201b60201c565b50806000806101000a81548173ffffffffffffffffffffffffffffffffffffffff021916908373ffffffffffffffffffffffffffffffffffffffff1602179055505062000296565b6000600860009054906101000a900473ffffffffffffffffffffffffffffffffffffffff16905081600860006101000a81548173ffffffffffffffffffffffffffffffffffffffff021916908373ffffffffffffffffffffffffffffffffffffffff1602179055508173ffffffffffffffffffffffffffffffffffffffff168173ffffffffffffffffffffffffffffffffffffffff167f8be0079c531659141344cd1fd0a4f28419497f9722a3daafe3b4186f6b6457e060405160405180910390a35050565b600080fd5b600073ffffffffffffffffffffffffffffffffffffffff82169050919050565b6000620001fe82620001d1565b9050919050565b6200021081620001f1565b81146200021c57600080fd5b50565b600081519050620002308162000205565b92915050565b6000602082840312156200024f576200024e620001cc565b5b60006200025f848285016200021f565b91505092915050565b6200027381620001f1565b82525050565b600060208201905062000290600083018462000268565b92915050565b61338880620002a66000396000f3fe6080604052600436106101b75760003560e01c806371094ee7116100ec578063b541fb751161008a578063ec9c321211610064578063ec9c321214610663578063edb2272d1461068c578063f2fde38b146106b5578063f6cd1116146106de576101b7565b8063b541fb75146105be578063c2edf233146105fb578063e72531c814610638576101b7565b80638da5cb5b116100c65780638da5cb5b146104d957806396c7d4c414610504578063a75d7e8614610541578063aa1c61a714610581576101b7565b806371094ee714610470578063715018a6146104995780637f81e207146104b0576101b7565b80633ae9a18e116101595780636301ac8f116101335780636301ac8f146103b45780636923e885146103df5780636b1245f7146104085780636ca7f95c14610445576101b7565b80633ae9a18e1461030c57806345d8f7b51461034b57806362f567a81461038b576101b7565b80631ac3ddeb116101955780631ac3ddeb1461024d5780631bfc6715146102765780633223ae741461029257806338a2ca4d146102cf576101b7565b806309cb95c2146101bc5780631328b870146101e5578063146bca3714610210575b600080fd5b3480156101c857600080fd5b506101e360048036038101906101de91906127dc565b61071b565b005b3480156101f157600080fd5b506101fa610abb565b6040516102079190612818565b60405180910390f35b34801561021c57600080fd5b5061023760048036038101906102329190612891565b610ac1565b60405161024491906128ec565b60405180910390f35b34801561025957600080fd5b50610274600480360381019061026f9190612907565b610bac565b005b610290600480360381019061028b91906127dc565b610c62565b005b34801561029e57600080fd5b506102b960048036038101906102b49190612934565b610fc3565b6040516102c69190612818565b60405180910390f35b3480156102db57600080fd5b506102f660048036038101906102f19190612934565b610ff4565b6040516103039190612818565b60405180910390f35b34801561031857600080fd5b50610333600480360381019061032e9190612934565b611025565b60405161034293929190612974565b60405180910390f35b34801561035757600080fd5b50610372600480360381019061036d91906127dc565b61120f565b60405161038294939291906129ba565b60405180910390f35b34801561039757600080fd5b506103b260048036038101906103ad91906127dc565b61126c565b005b3480156103c057600080fd5b506103c9611651565b6040516103d69190612818565b60405180910390f35b3480156103eb57600080fd5b5061040660048036038101906104019190612b58565b611657565b005b34801561041457600080fd5b5061042f600480360381019061042a91906127dc565b6116a5565b60405161043c9190612c5f565b60405180910390f35b34801561045157600080fd5b5061045a611a2e565b6040516104679190612818565b60405180910390f35b34801561047c57600080fd5b5061049760048036038101906104929190612c81565b611a34565b005b3480156104a557600080fd5b506104ae611c1d565b005b3480156104bc57600080fd5b506104d760048036038101906104d291906127dc565b611c31565b005b3480156104e557600080fd5b506104ee611d60565b6040516104fb9190612cc1565b60405180910390f35b34801561051057600080fd5b5061052b600480360381019061052691906127dc565b611d8a565b6040516105389190612818565b60405180910390f35b34801561054d57600080fd5b50610568600480360381019061056391906127dc565b611fa6565b60405161057894939291906129ba565b60405180910390f35b34801561058d57600080fd5b506105a860048036038101906105a391906127dc565b612003565b6040516105b59190612818565b60405180910390f35b3480156105ca57600080fd5b506105e560048036038101906105e09190612907565b612026565b6040516105f29190612818565b60405180910390f35b34801561060757600080fd5b50610622600480360381019061061d9190612907565b612072565b60405161062f9190612818565b60405180910390f35b34801561064457600080fd5b5061064d6120be565b60405161065a9190612cc1565b60405180910390f35b34801561066f57600080fd5b5061068a600480360381019061068591906127dc565b6120e2565b005b34801561069857600080fd5b506106b360048036038101906106ae91906127dc565b612211565b005b3480156106c157600080fd5b506106dc60048036038101906106d79190612907565b6123ae565b005b3480156106ea57600080fd5b50610705600480360381019061070091906127dc565b612434565b6040516107129190612818565b60405180910390f35b803373ffffffffffffffffffffffffffffffffffffffff166001600083815260200190815260200160002060000160009054906101000a900473ffffffffffffffffffffffffffffffffffffffff1673ffffffffffffffffffffffffffffffffffffffff16146107c0576040517f08c379a00000000000000000000000000000000000000000000000000000000081526004016107b790612d5f565b60405180910390fd5b6000600160008481526020019081526020016000206040518060a00160405290816000820160009054906101000a900473ffffffffffffffffffffffffffffffffffffffff1673ffffffffffffffffffffffffffffffffffffffff1673ffffffffffffffffffffffffffffffffffffffff16815260200160018201548152602001600282015481526020016003820180548060200260200160405190810160405280929190818152602001828054801561089957602002820191906000526020600020905b815481526020019060010190808311610885575b505050505081526020016004820160009054906101000a900460ff16151515158152505090508060800151610903576040517f08c379a00000000000000000000000000000000000000000000000000000000081526004016108fa90612dcb565b60405180910390fd5b600080600090505b826060015151811015610a86576000600260008560600151848151811061093557610934612deb565b5b6020026020010151815260200190815260200160002090508060030160009054906101000a900460ff16801561096e5750428160020154105b15610a72578360200151836109839190612e49565b9250836040015181600201600082825461099d9190612e49565b9250508190555060008054906101000a900473ffffffffffffffffffffffffffffffffffffffff1673ffffffffffffffffffffffffffffffffffffffff166323b872dd8260000160009054906101000a900473ffffffffffffffffffffffffffffffffffffffff16866000015187602001516040518463ffffffff1660e01b8152600401610a2d93929190612e7d565b6020604051808303816000875af1158015610a4c573d6000803e3d6000fd5b505050506040513d601f19601f82011682018060405250810190610a709190612ee0565b505b508080610a7e90612f0d565b91505061090b565b5080847fa64f5958914de5935238a52a0ead17aa278b4315d8e7ea356848ba1b48d5f00460405160405180910390a350505050565b60035481565b600080600760008473ffffffffffffffffffffffffffffffffffffffff1673ffffffffffffffffffffffffffffffffffffffff168152602001908152602001600020805480602002602001604051908101604052809291908181526020018280548015610b4d57602002820191906000526020600020905b815481526020019060010190808311610b39575b5050505050905060005b8151811015610b9f57818181518110610b7357610b72612deb565b5b60200260200101518503610b8c57600192505050610ba6565b8080610b9790612f0d565b915050610b57565b5060009150505b92915050565b610bb461263d565b60008054906101000a900473ffffffffffffffffffffffffffffffffffffffff1673ffffffffffffffffffffffffffffffffffffffff166323b872dd30836005546040518463ffffffff1660e01b8152600401610c1393929190612e7d565b6020604051808303816000875af1158015610c32573d6000803e3d6000fd5b505050506040513d601f19601f82011682018060405250810190610c569190612ee0565b50600060058190555050565b60006001600083815260200190815260200160002090508060040160009054906101000a900460ff16610cca576040517f08c379a0000000000000000000000000000000000000000000000000000000008152600401610cc190612fa1565b60405180910390fd5b610cd48233610ac1565b15610d14576040517f08c379a0000000000000000000000000000000000000000000000000000000008152600401610d0b9061300d565b60405180910390fd5b60008054906101000a900473ffffffffffffffffffffffffffffffffffffffff1673ffffffffffffffffffffffffffffffffffffffff166323b872dd338360000160009054906101000a900473ffffffffffffffffffffffffffffffffffffffff1684600101546040518463ffffffff1660e01b8152600401610d9993929190612e7d565b6020604051808303816000875af1158015610db8573d6000803e3d6000fd5b505050506040513d601f19601f82011682018060405250810190610ddc9190612ee0565b5060405180608001604052803373ffffffffffffffffffffffffffffffffffffffff168152602001838152602001826002015442610e1a9190612e49565b81526020016001151581525060026000600354815260200190815260200160002060008201518160000160006101000a81548173ffffffffffffffffffffffffffffffffffffffff021916908373ffffffffffffffffffffffffffffffffffffffff160217905550602082015181600101556040820151816002015560608201518160030160006101000a81548160ff021916908315150217905550905050600760003373ffffffffffffffffffffffffffffffffffffffff1673ffffffffffffffffffffffffffffffffffffffff168152602001908152602001600020600354908060018154018082558091505060019003906000526020600020016000909190919091505560016000838152602001908152602001600020600301600354908060018154018082558091505060019003906000526020600020016000909190919091505560036000815480929190610f7390612f0d565b9190505550600354823373ffffffffffffffffffffffffffffffffffffffff167ff94991dcbea6e8ac439cbc93bd9c62a4d39f04e0ad656df9a703f13552c2787f60405160405180910390a45050565b60076020528160005260406000208181548110610fdf57600080fd5b90600052602060002001600091509150505481565b6006602052816000526040600020818154811061101057600080fd5b90600052602060002001600091509150505481565b600080600080600760008773ffffffffffffffffffffffffffffffffffffffff1673ffffffffffffffffffffffffffffffffffffffff1681526020019081526020016000208054806020026020016040519081016040528092919081815260200182805480156110b457602002820191906000526020600020905b8154815260200190600101908083116110a0575b5050505050905060005b815181101561120557600260008383815181106110de576110dd612deb565b5b602002602001015181526020019081526020016000206001015486036111f25760006002600084848151811061111757611116612deb565b5b602002602001015181526020019081526020016000206040518060800160405290816000820160009054906101000a900473ffffffffffffffffffffffffffffffffffffffff1673ffffffffffffffffffffffffffffffffffffffff1673ffffffffffffffffffffffffffffffffffffffff16815260200160018201548152602001600282015481526020016003820160009054906101000a900460ff16151515158152505090508282815181106111d2576111d1612deb565b5b602002602001015181604001518260600151955095509550505050611208565b80806111fd90612f0d565b9150506110be565b50505b9250925092565b60026020528060005260406000206000915090508060000160009054906101000a900473ffffffffffffffffffffffffffffffffffffffff16908060010154908060020154908060030160009054906101000a900460ff16905084565b61127461263d565b6000600160008381526020019081526020016000206040518060a00160405290816000820160009054906101000a900473ffffffffffffffffffffffffffffffffffffffff1673ffffffffffffffffffffffffffffffffffffffff1673ffffffffffffffffffffffffffffffffffffffff16815260200160018201548152602001600282015481526020016003820180548060200260200160405190810160405280929190818152602001828054801561134d57602002820191906000526020600020905b815481526020019060010190808311611339575b505050505081526020016004820160009054906101000a900460ff161515151581525050905080608001516113b7576040517f08c379a00000000000000000000000000000000000000000000000000000000081526004016113ae90612dcb565b60405180910390fd5b600080600090505b82606001515181101561153657600060026000856060015184815181106113e9576113e8612deb565b5b6020026020010151815260200190815260200160002090508060030160009054906101000a900460ff1680156114225750428160020154105b15611522578360200151836114379190612e49565b925083604001518160020160008282546114519190612e49565b9250508190555060008054906101000a900473ffffffffffffffffffffffffffffffffffffffff1673ffffffffffffffffffffffffffffffffffffffff166323b872dd8260000160009054906101000a900473ffffffffffffffffffffffffffffffffffffffff163087602001516040518463ffffffff1660e01b81526004016114dd93929190612e7d565b6020604051808303816000875af11580156114fc573d6000803e3d6000fd5b505050506040513d601f19601f820116820180604052508101906115209190612ee0565b505b50808061152e90612f0d565b9150506113bf565b506000606482611546919061305c565b9050806005600082825461155a9190612e49565b9250508190555060008054906101000a900473ffffffffffffffffffffffffffffffffffffffff1673ffffffffffffffffffffffffffffffffffffffff166323b872dd30856000015184866115af919061308d565b6040518463ffffffff1660e01b81526004016115cd93929190612e7d565b6020604051808303816000875af11580156115ec573d6000803e3d6000fd5b505050506040513d601f19601f820116820180604052508101906116109190612ee0565b5080818361161e919061308d565b857fe08e3ed33e519ebd9af9b3e5aa128810d4e554d8c08b8b703e5a3488cedaf06960405160405180910390a450505050565b60045481565b61165f61263d565b60005b81518110156116a15761168e82828151811061168157611680612deb565b5b602002602001015161126c565b808061169990612f0d565b915050611662565b5050565b60606000600160008481526020019081526020016000206040518060a00160405290816000820160009054906101000a900473ffffffffffffffffffffffffffffffffffffffff1673ffffffffffffffffffffffffffffffffffffffff1673ffffffffffffffffffffffffffffffffffffffff16815260200160018201548152602001600282015481526020016003820180548060200260200160405190810160405280929190818152602001828054801561178057602002820191906000526020600020905b81548152602001906001019080831161176c575b505050505081526020016004820160009054906101000a900460ff1615151515815250509050600081606001515167ffffffffffffffff8111156117c7576117c6612a15565b5b6040519080825280602002602001820160405280156117f55781602001602082028036833780820191505090505b5090506000805b83606001515181101561194d576000600260008660600151848151811061182657611825612deb565b5b602002602001015181526020019081526020016000206040518060800160405290816000820160009054906101000a900473ffffffffffffffffffffffffffffffffffffffff1673ffffffffffffffffffffffffffffffffffffffff1673ffffffffffffffffffffffffffffffffffffffff16815260200160018201548152602001600282015481526020016003820160009054906101000a900460ff16151515158152505090508060600151156119395780600001518484815181106118f0576118ef612deb565b5b602002602001019073ffffffffffffffffffffffffffffffffffffffff16908173ffffffffffffffffffffffffffffffffffffffff1681525050828061193590612f0d565b9350505b50808061194590612f0d565b9150506117fc565b5060008167ffffffffffffffff81111561196a57611969612a15565b5b6040519080825280602002602001820160405280156119985781602001602082028036833780820191505090505b50905060005b82811015611a21578381815181106119b9576119b8612deb565b5b60200260200101518282815181106119d4576119d3612deb565b5b602002602001019073ffffffffffffffffffffffffffffffffffffffff16908173ffffffffffffffffffffffffffffffffffffffff16815250508080611a1990612f0d565b91505061199e565b5080945050505050919050565b60055481565b60008211611a77576040517f08c379a0000000000000000000000000000000000000000000000000000000008152600401611a6e9061310d565b60405180910390fd5b60008111611aba576040517f08c379a0000000000000000000000000000000000000000000000000000000008152600401611ab19061319f565b60405180910390fd5b60006001600060045481526020019081526020016000209050338160000160006101000a81548173ffffffffffffffffffffffffffffffffffffffff021916908373ffffffffffffffffffffffffffffffffffffffff16021790555082816001018190555081816002018190555060018160040160006101000a81548160ff02191690831515021790555060046000815480929190611b5890612f0d565b9190505550600660003373ffffffffffffffffffffffffffffffffffffffff1673ffffffffffffffffffffffffffffffffffffffff16815260200190815260200160002060045490806001815401808255809150506001900390600052602060002001600090919091909150556004543373ffffffffffffffffffffffffffffffffffffffff167ff59010ab8ad125eb066b36d59e1cab6585253483563b7cdc7069d8feced0abd58585604051611c109291906131bf565b60405180910390a3505050565b611c2561263d565b611c2f60006126c4565b565b803373ffffffffffffffffffffffffffffffffffffffff166002600083815260200190815260200160002060000160009054906101000a900473ffffffffffffffffffffffffffffffffffffffff1673ffffffffffffffffffffffffffffffffffffffff1614611cd6576040517f08c379a0000000000000000000000000000000000000000000000000000000008152600401611ccd9061325a565b60405180910390fd5b60006002600084815260200190815260200160002090508060030160009054906101000a900460ff16611d3e576040517f08c379a0000000000000000000000000000000000000000000000000000000008152600401611d35906132c6565b60405180910390fd5b60008160030160006101000a81548160ff021916908315150217905550505050565b6000600860009054906101000a900473ffffffffffffffffffffffffffffffffffffffff16905090565b600080600160008481526020019081526020016000206040518060a00160405290816000820160009054906101000a900473ffffffffffffffffffffffffffffffffffffffff1673ffffffffffffffffffffffffffffffffffffffff1673ffffffffffffffffffffffffffffffffffffffff168152602001600182015481526020016002820154815260200160038201805480602002602001604051908101604052809291908181526020018280548015611e6457602002820191906000526020600020905b815481526020019060010190808311611e50575b505050505081526020016004820160009054906101000a900460ff161515151581525050905060005b816060015151811015611f9f5760006002600084606001518481518110611eb757611eb6612deb565b5b602002602001015181526020019081526020016000206040518060800160405290816000820160009054906101000a900473ffffffffffffffffffffffffffffffffffffffff1673ffffffffffffffffffffffffffffffffffffffff1673ffffffffffffffffffffffffffffffffffffffff16815260200160018201548152602001600282015481526020016003820160009054906101000a900460ff161515151581525050905080606001518015611f735750428160400151105b15611f8b57826020015184611f889190612e49565b93505b508080611f9790612f0d565b915050611e8d565b5050919050565b60016020528060005260406000206000915090508060000160009054906101000a900473ffffffffffffffffffffffffffffffffffffffff16908060010154908060020154908060040160009054906101000a900460ff16905084565b600060016000838152602001908152602001600020600301805490509050919050565b6000600760008373ffffffffffffffffffffffffffffffffffffffff1673ffffffffffffffffffffffffffffffffffffffff168152602001908152602001600020805490509050919050565b6000600660008373ffffffffffffffffffffffffffffffffffffffff1673ffffffffffffffffffffffffffffffffffffffff168152602001908152602001600020805490509050919050565b60008054906101000a900473ffffffffffffffffffffffffffffffffffffffff1681565b803373ffffffffffffffffffffffffffffffffffffffff166001600083815260200190815260200160002060000160009054906101000a900473ffffffffffffffffffffffffffffffffffffffff1673ffffffffffffffffffffffffffffffffffffffff1614612187576040517f08c379a000000000000000000000000000000000000000000000000000000000815260040161217e90612d5f565b60405180910390fd5b60006001600084815260200190815260200160002090508060040160009054906101000a900460ff166121ef576040517f08c379a00000000000000000000000000000000000000000000000000000000081526004016121e690612fa1565b60405180910390fd5b60008160040160006101000a81548160ff021916908315150217905550505050565b803373ffffffffffffffffffffffffffffffffffffffff166002600083815260200190815260200160002060000160009054906101000a900473ffffffffffffffffffffffffffffffffffffffff1673ffffffffffffffffffffffffffffffffffffffff16146122b6576040517f08c379a00000000000000000000000000000000000000000000000000000000081526004016122ad9061325a565b60405180910390fd5b60006002600084815260200190815260200160002090506000600160008360010154815260200190815260200160002090508160030160009054906101000a900460ff161561233a576040517f08c379a000000000000000000000000000000000000000000000000000000000815260040161233190613332565b60405180910390fd5b8060040160009054906101000a900460ff1661238b576040517f08c379a000000000000000000000000000000000000000000000000000000000815260040161238290612fa1565b60405180910390fd5b60018260030160006101000a81548160ff02191690831515021790555050505050565b6123b661263d565b600073ffffffffffffffffffffffffffffffffffffffff168173ffffffffffffffffffffffffffffffffffffffff16036124285760006040517f1e4fbdf700000000000000000000000000000000000000000000000000000000815260040161241f9190612cc1565b60405180910390fd5b612431816126c4565b50565b600080600160008481526020019081526020016000206040518060a00160405290816000820160009054906101000a900473ffffffffffffffffffffffffffffffffffffffff1673ffffffffffffffffffffffffffffffffffffffff1673ffffffffffffffffffffffffffffffffffffffff16815260200160018201548152602001600282015481526020016003820180548060200260200160405190810160405280929190818152602001828054801561250e57602002820191906000526020600020905b8154815260200190600101908083116124fa575b505050505081526020016004820160009054906101000a900460ff161515151581525050905060005b816060015151811015612636576000600260008460600151848151811061256157612560612deb565b5b602002602001015181526020019081526020016000206040518060800160405290816000820160009054906101000a900473ffffffffffffffffffffffffffffffffffffffff1673ffffffffffffffffffffffffffffffffffffffff1673ffffffffffffffffffffffffffffffffffffffff16815260200160018201548152602001600282015481526020016003820160009054906101000a900460ff161515151581525050905080606001511561262257838061261e90612f0d565b9450505b50808061262e90612f0d565b915050612537565b5050919050565b61264561278a565b73ffffffffffffffffffffffffffffffffffffffff16612663611d60565b73ffffffffffffffffffffffffffffffffffffffff16146126c25761268661278a565b6040517f118cdaa70000000000000000000000000000000000000000000000000000000081526004016126b99190612cc1565b60405180910390fd5b565b6000600860009054906101000a900473ffffffffffffffffffffffffffffffffffffffff16905081600860006101000a81548173ffffffffffffffffffffffffffffffffffffffff021916908373ffffffffffffffffffffffffffffffffffffffff1602179055508173ffffffffffffffffffffffffffffffffffffffff168173ffffffffffffffffffffffffffffffffffffffff167f8be0079c531659141344cd1fd0a4f28419497f9722a3daafe3b4186f6b6457e060405160405180910390a35050565b600033905090565b6000604051905090565b600080fd5b600080fd5b6000819050919050565b6127b9816127a6565b81146127c457600080fd5b50565b6000813590506127d6816127b0565b92915050565b6000602082840312156127f2576127f161279c565b5b6000612800848285016127c7565b91505092915050565b612812816127a6565b82525050565b600060208201905061282d6000830184612809565b92915050565b600073ffffffffffffffffffffffffffffffffffffffff82169050919050565b600061285e82612833565b9050919050565b61286e81612853565b811461287957600080fd5b50565b60008135905061288b81612865565b92915050565b600080604083850312156128a8576128a761279c565b5b60006128b6858286016127c7565b92505060206128c78582860161287c565b9150509250929050565b60008115159050919050565b6128e6816128d1565b82525050565b600060208201905061290160008301846128dd565b92915050565b60006020828403121561291d5761291c61279c565b5b600061292b8482850161287c565b91505092915050565b6000806040838503121561294b5761294a61279c565b5b60006129598582860161287c565b925050602061296a858286016127c7565b9150509250929050565b60006060820190506129896000830186612809565b6129966020830185612809565b6129a360408301846128dd565b949350505050565b6129b481612853565b82525050565b60006080820190506129cf60008301876129ab565b6129dc6020830186612809565b6129e96040830185612809565b6129f660608301846128dd565b95945050505050565b600080fd5b6000601f19601f8301169050919050565b7f4e487b7100000000000000000000000000000000000000000000000000000000600052604160045260246000fd5b612a4d82612a04565b810181811067ffffffffffffffff82111715612a6c57612a6b612a15565b5b80604052505050565b6000612a7f612792565b9050612a8b8282612a44565b919050565b600067ffffffffffffffff821115612aab57612aaa612a15565b5b602082029050602081019050919050565b600080fd5b6000612ad4612acf84612a90565b612a75565b90508083825260208201905060208402830185811115612af757612af6612abc565b5b835b81811015612b205780612b0c88826127c7565b845260208401935050602081019050612af9565b5050509392505050565b600082601f830112612b3f57612b3e6129ff565b5b8135612b4f848260208601612ac1565b91505092915050565b600060208284031215612b6e57612b6d61279c565b5b600082013567ffffffffffffffff811115612b8c57612b8b6127a1565b5b612b9884828501612b2a565b91505092915050565b600081519050919050565b600082825260208201905092915050565b6000819050602082019050919050565b612bd681612853565b82525050565b6000612be88383612bcd565b60208301905092915050565b6000602082019050919050565b6000612c0c82612ba1565b612c168185612bac565b9350612c2183612bbd565b8060005b83811015612c52578151612c398882612bdc565b9750612c4483612bf4565b925050600181019050612c25565b5085935050505092915050565b60006020820190508181036000830152612c798184612c01565b905092915050565b60008060408385031215612c9857612c9761279c565b5b6000612ca6858286016127c7565b9250506020612cb7858286016127c7565b9150509250929050565b6000602082019050612cd660008301846129ab565b92915050565b600082825260208201905092915050565b7f4f6e6c792070726f76696465722063616e2063616c6c20746869732066756e6360008201527f74696f6e00000000000000000000000000000000000000000000000000000000602082015250565b6000612d49602483612cdc565b9150612d5482612ced565b604082019050919050565b60006020820190508181036000830152612d7881612d3c565b9050919050565b7f5365727669636520697320616374697665000000000000000000000000000000600082015250565b6000612db5601183612cdc565b9150612dc082612d7f565b602082019050919050565b60006020820190508181036000830152612de481612da8565b9050919050565b7f4e487b7100000000000000000000000000000000000000000000000000000000600052603260045260246000fd5b7f4e487b7100000000000000000000000000000000000000000000000000000000600052601160045260246000fd5b6000612e54826127a6565b9150612e5f836127a6565b9250828201905080821115612e7757612e76612e1a565b5b92915050565b6000606082019050612e9260008301866129ab565b612e9f60208301856129ab565b612eac6040830184612809565b949350505050565b612ebd816128d1565b8114612ec857600080fd5b50565b600081519050612eda81612eb4565b92915050565b600060208284031215612ef657612ef561279c565b5b6000612f0484828501612ecb565b91505092915050565b6000612f18826127a6565b91507fffffffffffffffffffffffffffffffffffffffffffffffffffffffffffffffff8203612f4a57612f49612e1a565b5b600182019050919050565b7f53657276696365206973206e6f74206163746976650000000000000000000000600082015250565b6000612f8b601583612cdc565b9150612f9682612f55565b602082019050919050565b60006020820190508181036000830152612fba81612f7e565b9050919050565b7f416c726561647920737562736372696265640000000000000000000000000000600082015250565b6000612ff7601283612cdc565b915061300282612fc1565b602082019050919050565b6000602082019050818103600083015261302681612fea565b9050919050565b7f4e487b7100000000000000000000000000000000000000000000000000000000600052601260045260246000fd5b6000613067826127a6565b9150613072836127a6565b9250826130825761308161302d565b5b828204905092915050565b6000613098826127a6565b91506130a3836127a6565b92508282039050818111156130bb576130ba612e1a565b5b92915050565b7f5072696365206d7573742062652067726561746572207468616e207a65726f00600082015250565b60006130f7601f83612cdc565b9150613102826130c1565b602082019050919050565b60006020820190508181036000830152613126816130ea565b9050919050565b7f52656e6577616c20706572696f64206d7573742062652067726561746572207460008201527f68616e207a65726f000000000000000000000000000000000000000000000000602082015250565b6000613189602883612cdc565b91506131948261312d565b604082019050919050565b600060208201905081810360008301526131b88161317c565b9050919050565b60006040820190506131d46000830185612809565b6131e16020830184612809565b9392505050565b7f4f6e6c7920737562736372696265722063616e2063616c6c207468697320667560008201527f6e6374696f6e0000000000000000000000000000000000000000000000000000602082015250565b6000613244602683612cdc565b915061324f826131e8565b604082019050919050565b6000602082019050818103600083015261327381613237565b9050919050565b7f537562736372697074696f6e206973206e6f7420616374697665000000000000600082015250565b60006132b0601a83612cdc565b91506132bb8261327a565b602082019050919050565b600060208201905081810360008301526132df816132a3565b9050919050565b7f537562736372697074696f6e20697320616c7265616479206163746976650000600082015250565b600061331c601e83612cdc565b9150613327826132e6565b602082019050919050565b6000602082019050818103600083015261334b8161330f565b905091905056fea26469706673582212201495f54e2630eb8d532f76ea67e49bf766922c9c473ab0fd64fef384bbd1da1064736f6c63430008140033",
  "linkReferences": {},
  "deployedLinkReferences": {}
}